{
  "_format": "hh-sol-artifact-1",
  "contractName": "Raffle",
  "sourceName": "contracts/Raffle.sol",
  "abi": [
    {
      "inputs": [
        {
          "internalType": "address",
          "name": "vrfCoordinatorV2",
          "type": "address"
        },
        {
          "internalType": "uint256",
          "name": "entranceFees",
          "type": "uint256"
        },
        {
          "internalType": "bytes32",
          "name": "gasLane",
          "type": "bytes32"
        },
        {
          "internalType": "uint64",
          "name": "subscriptionId",
          "type": "uint64"
        },
        {
          "internalType": "uint32",
          "name": "callbackGasLimit",
          "type": "uint32"
        }
      ],
      "stateMutability": "nonpayable",
      "type": "constructor"
    },
    {
      "inputs": [
        {
          "internalType": "address",
          "name": "have",
          "type": "address"
        },
        {
          "internalType": "address",
          "name": "want",
          "type": "address"
        }
      ],
      "name": "OnlyCoordinatorCanFulfill",
      "type": "error"
    },
    {
      "inputs": [],
      "name": "Raffle__notEnoughEthEntered",
      "type": "error"
    },
    {
      "inputs": [],
      "name": "Raffle__transferfailed",
      "type": "error"
    },
    {
      "anonymous": false,
      "inputs": [
        {
          "indexed": true,
          "internalType": "address",
          "name": "player",
          "type": "address"
        }
      ],
      "name": "RaffleEnter",
      "type": "event"
    },
    {
      "anonymous": false,
      "inputs": [
        {
          "indexed": true,
          "internalType": "uint256",
          "name": "requestId",
          "type": "uint256"
        }
      ],
      "name": "RequestRaffleWinner",
      "type": "event"
    },
    {
      "anonymous": false,
      "inputs": [
        {
          "indexed": true,
          "internalType": "address",
          "name": "winner",
          "type": "address"
        }
      ],
      "name": "winnerPicked",
      "type": "event"
    },
    {
      "inputs": [],
      "name": "enterRaffle",
      "outputs": [],
      "stateMutability": "payable",
      "type": "function"
    },
    {
      "inputs": [],
      "name": "getEntranceFees",
      "outputs": [
        {
          "internalType": "uint256",
          "name": "",
          "type": "uint256"
        }
      ],
      "stateMutability": "view",
      "type": "function"
    },
    {
      "inputs": [
        {
          "internalType": "uint256",
          "name": "index",
          "type": "uint256"
        }
      ],
      "name": "getPlayer",
      "outputs": [
        {
          "internalType": "address",
          "name": "",
          "type": "address"
        }
      ],
      "stateMutability": "view",
      "type": "function"
    },
    {
      "inputs": [],
      "name": "getRecentWinner",
      "outputs": [
        {
          "internalType": "address",
          "name": "",
          "type": "address"
        }
      ],
      "stateMutability": "view",
      "type": "function"
    },
    {
      "inputs": [
        {
          "internalType": "uint256",
          "name": "requestId",
          "type": "uint256"
        },
        {
          "internalType": "uint256[]",
          "name": "randomWords",
          "type": "uint256[]"
        }
      ],
      "name": "rawFulfillRandomWords",
      "outputs": [],
      "stateMutability": "nonpayable",
      "type": "function"
    },
    {
      "inputs": [],
      "name": "requestRandomWinner",
      "outputs": [],
      "stateMutability": "nonpayable",
      "type": "function"
    }
  ],
  "bytecode": "0x61014060405234801561001157600080fd5b50604051610e6a380380610e6a83398181016040528101906100339190610234565b848073ffffffffffffffffffffffffffffffffffffffff1660808173ffffffffffffffffffffffffffffffffffffffff1681525050508360a081815250508473ffffffffffffffffffffffffffffffffffffffff1660c08173ffffffffffffffffffffffffffffffffffffffff16815250508260e081815250508167ffffffffffffffff166101008167ffffffffffffffff16815250508063ffffffff166101208163ffffffff168152505050505050506102af565b600080fd5b600073ffffffffffffffffffffffffffffffffffffffff82169050919050565b6000610119826100ee565b9050919050565b6101298161010e565b811461013457600080fd5b50565b60008151905061014681610120565b92915050565b6000819050919050565b61015f8161014c565b811461016a57600080fd5b50565b60008151905061017c81610156565b92915050565b6000819050919050565b61019581610182565b81146101a057600080fd5b50565b6000815190506101b28161018c565b92915050565b600067ffffffffffffffff82169050919050565b6101d5816101b8565b81146101e057600080fd5b50565b6000815190506101f2816101cc565b92915050565b600063ffffffff82169050919050565b610211816101f8565b811461021c57600080fd5b50565b60008151905061022e81610208565b92915050565b600080600080600060a086880312156102505761024f6100e9565b5b600061025e88828901610137565b955050602061026f8882890161016d565b9450506040610280888289016101a3565b9350506060610291888289016101e3565b92505060806102a28882890161021f565b9150509295509295909350565b60805160a05160c05160e0516101005161012051610b5e61030c60003960006103cf015260006103ac0152600061038b0152600061034f0152600081816101f90152610327015260008181610139015261018d0152610b5e6000f3fe6080604052600436106100555760003560e01c80631fe543e31461005a5780632cfcc53914610083578063473f1ddc1461008d5780634a26d4f4146100b8578063522a1f0b146100e3578063e55ae4e8146100fa575b600080fd5b34801561006657600080fd5b50610081600480360381019061007c919061080e565b610137565b005b61008b6101f7565b005b34801561009957600080fd5b506100a26102f9565b6040516100af91906108ab565b60405180910390f35b3480156100c457600080fd5b506100cd610323565b6040516100da91906108d5565b60405180910390f35b3480156100ef57600080fd5b506100f861034b565b005b34801561010657600080fd5b50610121600480360381019061011c91906108f0565b610485565b60405161012e91906108ab565b60405180910390f35b7f000000000000000000000000000000000000000000000000000000000000000073ffffffffffffffffffffffffffffffffffffffff163373ffffffffffffffffffffffffffffffffffffffff16146101e957337f00000000000000000000000000000000000000000000000000000000000000006040517f1cf993f40000000000000000000000000000000000000000000000000000000081526004016101e092919061091d565b60405180910390fd5b6101f382826104cc565b5050565b7f0000000000000000000000000000000000000000000000000000000000000000341015610251576040517fa9ea942c00000000000000000000000000000000000000000000000000000000815260040160405180910390fd5b6000339080600181540180825580915050600190039060005260206000200160009091909190916101000a81548173ffffffffffffffffffffffffffffffffffffffff021916908373ffffffffffffffffffffffffffffffffffffffff1602179055503373ffffffffffffffffffffffffffffffffffffffff167f0805e1d667bddb8a95f0f09880cf94f403fb596ce79928d9f29b74203ba284d460405160405180910390a2565b6000600160009054906101000a900473ffffffffffffffffffffffffffffffffffffffff16905090565b60007f0000000000000000000000000000000000000000000000000000000000000000905090565b60007f000000000000000000000000000000000000000000000000000000000000000073ffffffffffffffffffffffffffffffffffffffff16635d3b1d307f00000000000000000000000000000000000000000000000000000000000000007f000000000000000000000000000000000000000000000000000000000000000060037f000000000000000000000000000000000000000000000000000000000000000060016040518663ffffffff1660e01b81526004016104109594939291906109be565b6020604051808303816000875af115801561042f573d6000803e3d6000fd5b505050506040513d601f19601f820116820180604052508101906104539190610a26565b9050807fde6349b018d6c03d837b67d9a198a6ba4842546f2295fe963fae141e5dbaef8160405160405180910390a250565b600080828154811061049a57610499610a53565b5b9060005260206000200160009054906101000a900473ffffffffffffffffffffffffffffffffffffffff169050919050565b60008080549050826000815181106104e7576104e6610a53565b5b60200260200101516104f99190610ab1565b905060008082815481106105105761050f610a53565b5b9060005260206000200160009054906101000a900473ffffffffffffffffffffffffffffffffffffffff16905080600160006101000a81548173ffffffffffffffffffffffffffffffffffffffff021916908373ffffffffffffffffffffffffffffffffffffffff16021790555060008173ffffffffffffffffffffffffffffffffffffffff16476040516105a490610b13565b60006040518083038185875af1925050503d80600081146105e1576040519150601f19603f3d011682016040523d82523d6000602084013e6105e6565b606091505b5050905080610621576040517fb8eede7800000000000000000000000000000000000000000000000000000000815260040160405180910390fd5b8173ffffffffffffffffffffffffffffffffffffffff167f794919b0f484b8e90b1b817ac7f880f846fbd8a9813dee2a378e820db094e3d160405160405180910390a25050505050565b6000604051905090565b600080fd5b600080fd5b6000819050919050565b6106928161067f565b811461069d57600080fd5b50565b6000813590506106af81610689565b92915050565b600080fd5b6000601f19601f8301169050919050565b7f4e487b7100000000000000000000000000000000000000000000000000000000600052604160045260246000fd5b610703826106ba565b810181811067ffffffffffffffff82111715610722576107216106cb565b5b80604052505050565b600061073561066b565b905061074182826106fa565b919050565b600067ffffffffffffffff821115610761576107606106cb565b5b602082029050602081019050919050565b600080fd5b600061078a61078584610746565b61072b565b905080838252602082019050602084028301858111156107ad576107ac610772565b5b835b818110156107d657806107c288826106a0565b8452602084019350506020810190506107af565b5050509392505050565b600082601f8301126107f5576107f46106b5565b5b8135610805848260208601610777565b91505092915050565b6000806040838503121561082557610824610675565b5b6000610833858286016106a0565b925050602083013567ffffffffffffffff8111156108545761085361067a565b5b610860858286016107e0565b9150509250929050565b600073ffffffffffffffffffffffffffffffffffffffff82169050919050565b60006108958261086a565b9050919050565b6108a58161088a565b82525050565b60006020820190506108c0600083018461089c565b92915050565b6108cf8161067f565b82525050565b60006020820190506108ea60008301846108c6565b92915050565b60006020828403121561090657610905610675565b5b6000610914848285016106a0565b91505092915050565b6000604082019050610932600083018561089c565b61093f602083018461089c565b9392505050565b6000819050919050565b61095981610946565b82525050565b600067ffffffffffffffff82169050919050565b61097c8161095f565b82525050565b600061ffff82169050919050565b61099981610982565b82525050565b600063ffffffff82169050919050565b6109b88161099f565b82525050565b600060a0820190506109d36000830188610950565b6109e06020830187610973565b6109ed6040830186610990565b6109fa60608301856109af565b610a0760808301846109af565b9695505050505050565b600081519050610a2081610689565b92915050565b600060208284031215610a3c57610a3b610675565b5b6000610a4a84828501610a11565b91505092915050565b7f4e487b7100000000000000000000000000000000000000000000000000000000600052603260045260246000fd5b7f4e487b7100000000000000000000000000000000000000000000000000000000600052601260045260246000fd5b6000610abc8261067f565b9150610ac78361067f565b925082610ad757610ad6610a82565b5b828206905092915050565b600081905092915050565b50565b6000610afd600083610ae2565b9150610b0882610aed565b600082019050919050565b6000610b1e82610af0565b915081905091905056fea2646970667358221220003d03e062ae667831f589fc23b52e39d18ab3c342f1df4e9dc3122946c96d8b64736f6c634300081c0033",
  "linkReferences": {},
  "deployedLinkReferences": {}
}