{
  "_format": "hh-sol-artifact-1",
  "contractName": "Raffle",
  "sourceName": "contracts/Raffle.sol",
  "abi": [
    {
      "inputs": [
        {
          "internalType": "address",
          "name": "vrfCoordinatorV2",
          "type": "address"
        },
        {
          "internalType": "uint256",
          "name": "entranceFees",
          "type": "uint256"
        },
        {
          "internalType": "bytes32",
          "name": "gasLane",
          "type": "bytes32"
        },
        {
          "internalType": "uint64",
          "name": "subscriptionId",
          "type": "uint64"
        },
        {
          "internalType": "uint32",
          "name": "callbackGasLimit",
          "type": "uint32"
        },
        {
          "internalType": "uint256",
          "name": "interval",
          "type": "uint256"
        }
      ],
      "stateMutability": "nonpayable",
      "type": "constructor"
    },
    {
      "inputs": [
        {
          "internalType": "address",
          "name": "have",
          "type": "address"
        },
        {
          "internalType": "address",
          "name": "want",
          "type": "address"
        }
      ],
      "name": "OnlyCoordinatorCanFulfill",
      "type": "error"
    },
    {
      "inputs": [],
      "name": "Raffle__NotOpen",
      "type": "error"
    },
    {
      "inputs": [
        {
          "internalType": "uint256",
          "name": "currentBalance",
          "type": "uint256"
        },
        {
          "internalType": "uint256",
          "name": "numPlayers",
          "type": "uint256"
        },
        {
          "internalType": "uint256",
          "name": "raffleState",
          "type": "uint256"
        }
      ],
      "name": "Raffle__UpkeepNotNeeded",
      "type": "error"
    },
    {
      "inputs": [],
      "name": "Raffle__notEnoughEthEntered",
      "type": "error"
    },
    {
      "inputs": [],
      "name": "Raffle__transferfailed",
      "type": "error"
    },
    {
      "anonymous": false,
      "inputs": [
        {
          "indexed": true,
          "internalType": "address",
          "name": "player",
          "type": "address"
        }
      ],
      "name": "RaffleEnter",
      "type": "event"
    },
    {
      "anonymous": false,
      "inputs": [
        {
          "indexed": true,
          "internalType": "uint256",
          "name": "requestId",
          "type": "uint256"
        }
      ],
      "name": "RequestRaffleWinner",
      "type": "event"
    },
    {
      "anonymous": false,
      "inputs": [
        {
          "indexed": true,
          "internalType": "address",
          "name": "winner",
          "type": "address"
        }
      ],
      "name": "winnerPicked",
      "type": "event"
    },
    {
      "inputs": [
        {
          "internalType": "bytes",
          "name": "",
          "type": "bytes"
        }
      ],
      "name": "checkUpkeep",
      "outputs": [
        {
          "internalType": "bool",
          "name": "upkeepNeeded",
          "type": "bool"
        },
        {
          "internalType": "bytes",
          "name": "",
          "type": "bytes"
        }
      ],
      "stateMutability": "view",
      "type": "function"
    },
    {
      "inputs": [],
      "name": "enterRaffle",
      "outputs": [],
      "stateMutability": "payable",
      "type": "function"
    },
    {
      "inputs": [],
      "name": "getEntranceFees",
      "outputs": [
        {
          "internalType": "uint256",
          "name": "",
          "type": "uint256"
        }
      ],
      "stateMutability": "view",
      "type": "function"
    },
    {
      "inputs": [],
      "name": "getLatestTimeStamp",
      "outputs": [
        {
          "internalType": "uint256",
          "name": "",
          "type": "uint256"
        }
      ],
      "stateMutability": "view",
      "type": "function"
    },
    {
      "inputs": [],
      "name": "getNumWords",
      "outputs": [
        {
          "internalType": "uint256",
          "name": "",
          "type": "uint256"
        }
      ],
      "stateMutability": "pure",
      "type": "function"
    },
    {
      "inputs": [],
      "name": "getNumberOfPlayers",
      "outputs": [
        {
          "internalType": "uint256",
          "name": "",
          "type": "uint256"
        }
      ],
      "stateMutability": "view",
      "type": "function"
    },
    {
      "inputs": [
        {
          "internalType": "uint256",
          "name": "index",
          "type": "uint256"
        }
      ],
      "name": "getPlayer",
      "outputs": [
        {
          "internalType": "address",
          "name": "",
          "type": "address"
        }
      ],
      "stateMutability": "view",
      "type": "function"
    },
    {
      "inputs": [],
      "name": "getRaffleState",
      "outputs": [
        {
          "internalType": "enum Raffle.RaffleState",
          "name": "",
          "type": "uint8"
        }
      ],
      "stateMutability": "view",
      "type": "function"
    },
    {
      "inputs": [],
      "name": "getRecentWinner",
      "outputs": [
        {
          "internalType": "address",
          "name": "",
          "type": "address"
        }
      ],
      "stateMutability": "view",
      "type": "function"
    },
    {
      "inputs": [],
      "name": "getRequestConfirmation",
      "outputs": [
        {
          "internalType": "uint256",
          "name": "",
          "type": "uint256"
        }
      ],
      "stateMutability": "pure",
      "type": "function"
    },
    {
      "inputs": [
        {
          "internalType": "bytes",
          "name": "",
          "type": "bytes"
        }
      ],
      "name": "performUpkeep",
      "outputs": [],
      "stateMutability": "nonpayable",
      "type": "function"
    },
    {
      "inputs": [
        {
          "internalType": "uint256",
          "name": "requestId",
          "type": "uint256"
        },
        {
          "internalType": "uint256[]",
          "name": "randomWords",
          "type": "uint256[]"
        }
      ],
      "name": "rawFulfillRandomWords",
      "outputs": [],
      "stateMutability": "nonpayable",
      "type": "function"
    }
  ],
  "bytecode": "0x61016060405234801561001157600080fd5b5060405161176e38038061176e83398181016040528101906100339190610270565b858073ffffffffffffffffffffffffffffffffffffffff1660808173ffffffffffffffffffffffffffffffffffffffff1681525050508460a081815250508573ffffffffffffffffffffffffffffffffffffffff1660c08173ffffffffffffffffffffffffffffffffffffffff16815250508360e081815250508267ffffffffffffffff166101008167ffffffffffffffff16815250508163ffffffff166101208163ffffffff16815250506000600160146101000a81548160ff02191690836001811115610105576101046102fd565b5b02179055504260028190555080610140818152505050505050505061032c565b600080fd5b600073ffffffffffffffffffffffffffffffffffffffff82169050919050565b60006101558261012a565b9050919050565b6101658161014a565b811461017057600080fd5b50565b6000815190506101828161015c565b92915050565b6000819050919050565b61019b81610188565b81146101a657600080fd5b50565b6000815190506101b881610192565b92915050565b6000819050919050565b6101d1816101be565b81146101dc57600080fd5b50565b6000815190506101ee816101c8565b92915050565b600067ffffffffffffffff82169050919050565b610211816101f4565b811461021c57600080fd5b50565b60008151905061022e81610208565b92915050565b600063ffffffff82169050919050565b61024d81610234565b811461025857600080fd5b50565b60008151905061026a81610244565b92915050565b60008060008060008060c0878903121561028d5761028c610125565b5b600061029b89828a01610173565b96505060206102ac89828a016101a9565b95505060406102bd89828a016101df565b94505060606102ce89828a0161021f565b93505060806102df89828a0161025b565b92505060a06102f089828a016101a9565b9150509295509295509295565b7f4e487b7100000000000000000000000000000000000000000000000000000000600052602160045260246000fd5b60805160a05160c05160e0516101005161012051610140516113da61039460003960006107940152600061063701526000610614015260006105f3015260006105b7015260008181610389015261071e0152600081816102c9015261031d01526113da6000f3fe6080604052600436106100a75760003560e01c80634a26d4f4116100645780634a26d4f41461018957806353a2c19a146101b45780636e04ff0d146101df578063ca6a9ef81461021d578063e55ae4e814610248578063fd6673f514610285576100a7565b8063115cbaf5146100ac5780631fe543e3146100d75780632cfcc53914610100578063320229eb1461010a5780634585e33b14610135578063473f1ddc1461015e575b600080fd5b3480156100b857600080fd5b506100c16102b0565b6040516100ce9190610bc2565b60405180910390f35b3480156100e357600080fd5b506100fe60048036038101906100f99190610d80565b6102c7565b005b610108610387565b005b34801561011657600080fd5b5061011f6104f6565b60405161012c9190610deb565b60405180910390f35b34801561014157600080fd5b5061015c60048036038101906101579190610e61565b610500565b005b34801561016a57600080fd5b506101736106f0565b6040516101809190610eef565b60405180910390f35b34801561019557600080fd5b5061019e61071a565b6040516101ab9190610deb565b60405180910390f35b3480156101c057600080fd5b506101c9610742565b6040516101d69190610deb565b60405180910390f35b3480156101eb57600080fd5b5061020660048036038101906102019190610fbf565b610751565b6040516102149291906110a2565b60405180910390f35b34801561022957600080fd5b50610232610813565b60405161023f9190610deb565b60405180910390f35b34801561025457600080fd5b5061026f600480360381019061026a91906110d2565b610820565b60405161027c9190610eef565b60405180910390f35b34801561029157600080fd5b5061029a610867565b6040516102a79190610deb565b60405180910390f35b6000600160149054906101000a900460ff16905090565b7f000000000000000000000000000000000000000000000000000000000000000073ffffffffffffffffffffffffffffffffffffffff163373ffffffffffffffffffffffffffffffffffffffff161461037957337f00000000000000000000000000000000000000000000000000000000000000006040517f1cf993f40000000000000000000000000000000000000000000000000000000081526004016103709291906110ff565b60405180910390fd5b6103838282610873565b5050565b7f00000000000000000000000000000000000000000000000000000000000000003410156103e1576040517fa9ea942c00000000000000000000000000000000000000000000000000000000815260040160405180910390fd5b600060018111156103f5576103f4610b4b565b5b600160149054906101000a900460ff16600181111561041757610416610b4b565b5b1461044e576040517f1425571c00000000000000000000000000000000000000000000000000000000815260040160405180910390fd5b6000339080600181540180825580915050600190039060005260206000200160009091909190916101000a81548173ffffffffffffffffffffffffffffffffffffffff021916908373ffffffffffffffffffffffffffffffffffffffff1602179055503373ffffffffffffffffffffffffffffffffffffffff167f0805e1d667bddb8a95f0f09880cf94f403fb596ce79928d9f29b74203ba284d460405160405180910390a2565b6000600254905090565b600061051a60405180602001604052806000815250610751565b509050806105895747600080549050600160149054906101000a900460ff16600181111561054b5761054a610b4b565b5b6040517f584327aa00000000000000000000000000000000000000000000000000000000815260040161058093929190611128565b60405180910390fd5b60018060146101000a81548160ff021916908360018111156105ae576105ad610b4b565b5b021790555060007f000000000000000000000000000000000000000000000000000000000000000073ffffffffffffffffffffffffffffffffffffffff16635d3b1d307f00000000000000000000000000000000000000000000000000000000000000007f000000000000000000000000000000000000000000000000000000000000000060037f000000000000000000000000000000000000000000000000000000000000000060016040518663ffffffff1660e01b81526004016106789594939291906111d7565b6020604051808303816000875af1158015610697573d6000803e3d6000fd5b505050506040513d601f19601f820116820180604052508101906106bb919061123f565b9050807fde6349b018d6c03d837b67d9a198a6ba4842546f2295fe963fae141e5dbaef8160405160405180910390a250505050565b6000600160009054906101000a900473ffffffffffffffffffffffffffffffffffffffff16905090565b60007f0000000000000000000000000000000000000000000000000000000000000000905090565b6000600163ffffffff16905090565b600060606000600160149054906101000a900460ff16600181111561077957610778610b4b565b5b6000600181111561078d5761078c610b4b565b5b14905060007f0000000000000000000000000000000000000000000000000000000000000000600254426107c1919061129b565b119050600080600080549050119050600080471190508380156107e15750825b80156107ea5750815b80156107f35750805b955085604051806020016040528060008152509550955050505050915091565b6000600361ffff16905090565b6000808281548110610835576108346112cf565b5b9060005260206000200160009054906101000a900473ffffffffffffffffffffffffffffffffffffffff169050919050565b60008080549050905090565b600080805490508260008151811061088e5761088d6112cf565b5b60200260200101516108a0919061132d565b905060008082815481106108b7576108b66112cf565b5b9060005260206000200160009054906101000a900473ffffffffffffffffffffffffffffffffffffffff16905080600160006101000a81548173ffffffffffffffffffffffffffffffffffffffff021916908373ffffffffffffffffffffffffffffffffffffffff1602179055506000600160146101000a81548160ff0219169083600181111561094b5761094a610b4b565b5b0217905550600067ffffffffffffffff81111561096b5761096a610c3d565b5b6040519080825280602002602001820160405280156109995781602001602082028036833780820191505090505b50600090805190602001906109af929190610aa4565b504260028190555060008173ffffffffffffffffffffffffffffffffffffffff16476040516109dd9061138f565b60006040518083038185875af1925050503d8060008114610a1a576040519150601f19603f3d011682016040523d82523d6000602084013e610a1f565b606091505b5050905080610a5a576040517fb8eede7800000000000000000000000000000000000000000000000000000000815260040160405180910390fd5b8173ffffffffffffffffffffffffffffffffffffffff167f794919b0f484b8e90b1b817ac7f880f846fbd8a9813dee2a378e820db094e3d160405160405180910390a25050505050565b828054828255906000526020600020908101928215610b1d579160200282015b82811115610b1c5782518260006101000a81548173ffffffffffffffffffffffffffffffffffffffff021916908373ffffffffffffffffffffffffffffffffffffffff16021790555091602001919060010190610ac4565b5b509050610b2a9190610b2e565b5090565b5b80821115610b47576000816000905550600101610b2f565b5090565b7f4e487b7100000000000000000000000000000000000000000000000000000000600052602160045260246000fd5b60028110610b8b57610b8a610b4b565b5b50565b6000819050610b9c82610b7a565b919050565b6000610bac82610b8e565b9050919050565b610bbc81610ba1565b82525050565b6000602082019050610bd76000830184610bb3565b92915050565b6000604051905090565b600080fd5b600080fd5b6000819050919050565b610c0481610bf1565b8114610c0f57600080fd5b50565b600081359050610c2181610bfb565b92915050565b600080fd5b6000601f19601f8301169050919050565b7f4e487b7100000000000000000000000000000000000000000000000000000000600052604160045260246000fd5b610c7582610c2c565b810181811067ffffffffffffffff82111715610c9457610c93610c3d565b5b80604052505050565b6000610ca7610bdd565b9050610cb38282610c6c565b919050565b600067ffffffffffffffff821115610cd357610cd2610c3d565b5b602082029050602081019050919050565b600080fd5b6000610cfc610cf784610cb8565b610c9d565b90508083825260208201905060208402830185811115610d1f57610d1e610ce4565b5b835b81811015610d485780610d348882610c12565b845260208401935050602081019050610d21565b5050509392505050565b600082601f830112610d6757610d66610c27565b5b8135610d77848260208601610ce9565b91505092915050565b60008060408385031215610d9757610d96610be7565b5b6000610da585828601610c12565b925050602083013567ffffffffffffffff811115610dc657610dc5610bec565b5b610dd285828601610d52565b9150509250929050565b610de581610bf1565b82525050565b6000602082019050610e006000830184610ddc565b92915050565b600080fd5b60008083601f840112610e2157610e20610c27565b5b8235905067ffffffffffffffff811115610e3e57610e3d610e06565b5b602083019150836001820283011115610e5a57610e59610ce4565b5b9250929050565b60008060208385031215610e7857610e77610be7565b5b600083013567ffffffffffffffff811115610e9657610e95610bec565b5b610ea285828601610e0b565b92509250509250929050565b600073ffffffffffffffffffffffffffffffffffffffff82169050919050565b6000610ed982610eae565b9050919050565b610ee981610ece565b82525050565b6000602082019050610f046000830184610ee0565b92915050565b600080fd5b600067ffffffffffffffff821115610f2a57610f29610c3d565b5b610f3382610c2c565b9050602081019050919050565b82818337600083830152505050565b6000610f62610f5d84610f0f565b610c9d565b905082815260208101848484011115610f7e57610f7d610f0a565b5b610f89848285610f40565b509392505050565b600082601f830112610fa657610fa5610c27565b5b8135610fb6848260208601610f4f565b91505092915050565b600060208284031215610fd557610fd4610be7565b5b600082013567ffffffffffffffff811115610ff357610ff2610bec565b5b610fff84828501610f91565b91505092915050565b60008115159050919050565b61101d81611008565b82525050565b600081519050919050565b600082825260208201905092915050565b60005b8381101561105d578082015181840152602081019050611042565b60008484015250505050565b600061107482611023565b61107e818561102e565b935061108e81856020860161103f565b61109781610c2c565b840191505092915050565b60006040820190506110b76000830185611014565b81810360208301526110c98184611069565b90509392505050565b6000602082840312156110e8576110e7610be7565b5b60006110f684828501610c12565b91505092915050565b60006040820190506111146000830185610ee0565b6111216020830184610ee0565b9392505050565b600060608201905061113d6000830186610ddc565b61114a6020830185610ddc565b6111576040830184610ddc565b949350505050565b6000819050919050565b6111728161115f565b82525050565b600067ffffffffffffffff82169050919050565b61119581611178565b82525050565b600061ffff82169050919050565b6111b28161119b565b82525050565b600063ffffffff82169050919050565b6111d1816111b8565b82525050565b600060a0820190506111ec6000830188611169565b6111f9602083018761118c565b61120660408301866111a9565b61121360608301856111c8565b61122060808301846111c8565b9695505050505050565b60008151905061123981610bfb565b92915050565b60006020828403121561125557611254610be7565b5b60006112638482850161122a565b91505092915050565b7f4e487b7100000000000000000000000000000000000000000000000000000000600052601160045260246000fd5b60006112a682610bf1565b91506112b183610bf1565b92508282039050818111156112c9576112c861126c565b5b92915050565b7f4e487b7100000000000000000000000000000000000000000000000000000000600052603260045260246000fd5b7f4e487b7100000000000000000000000000000000000000000000000000000000600052601260045260246000fd5b600061133882610bf1565b915061134383610bf1565b925082611353576113526112fe565b5b828206905092915050565b600081905092915050565b50565b600061137960008361135e565b915061138482611369565b600082019050919050565b600061139a8261136c565b915081905091905056fea2646970667358221220f85af67d9f4bc451887b4703445294781c5b9122e52f2dfd72740b1ce24648b764736f6c634300081c0033",
  "linkReferences": {},
  "deployedLinkReferences": {}
}